{"project/contracts/Greeter.sol":{"Greeter":{"abi":[{"inputs":[],"stateMutability":"nonpayable","type":"constructor"},{"inputs":[],"name":"InvalidInitialization","type":"error"},{"inputs":[],"name":"NotInitializing","type":"error"},{"inputs":[{"internalType":"address","name":"owner","type":"address"}],"name":"OwnableInvalidOwner","type":"error"},{"inputs":[{"internalType":"address","name":"account","type":"address"}],"name":"OwnableUnauthorizedAccount","type":"error"},{"anonymous":false,"inputs":[{"indexed":false,"internalType":"uint64","name":"version","type":"uint64"}],"name":"Initialized","type":"event"},{"anonymous":false,"inputs":[{"indexed":true,"internalType":"address","name":"previousOwner","type":"address"},{"indexed":true,"internalType":"address","name":"newOwner","type":"address"}],"name":"OwnershipTransferred","type":"event"},{"inputs":[],"name":"greeting","outputs":[{"internalType":"string","name":"","type":"string"}],"stateMutability":"view","type":"function"},{"inputs":[{"internalType":"address","name":"initialOwner","type":"address"},{"internalType":"string","name":"_greeting","type":"string"}],"name":"initialize","outputs":[],"stateMutability":"nonpayable","type":"function"},{"inputs":[],"name":"owner","outputs":[{"internalType":"address","name":"","type":"address"}],"stateMutability":"view","type":"function"},{"inputs":[],"name":"renounceOwnership","outputs":[],"stateMutability":"nonpayable","type":"function"},{"inputs":[{"internalType":"address","name":"newOwner","type":"address"}],"name":"transferOwnership","outputs":[],"stateMutability":"nonpayable","type":"function"}],"evm":{"bytecode":{"linkReferences":{},"object":"608060405234801561000f575f80fd5b5061001e61002360201b60201c565b61019e565b5f61003261012160201b60201c565b9050805f0160089054906101000a900460ff161561007c576040517ff92ee8a900000000000000000000000000000000000000000000000000000000815260040160405180910390fd5b67ffffffffffffffff8016815f015f9054906101000a900467ffffffffffffffff1667ffffffffffffffff161461011e5767ffffffffffffffff815f015f6101000a81548167ffffffffffffffff021916908367ffffffffffffffff1602179055507fc7f505b2f371ae2175ee4913f4499e1f2633a7b5936321eed1cdaeb6115181d267ffffffffffffffff6040516101159190610185565b60405180910390a15b50565b5f8061013161013a60201b60201c565b90508091505090565b5f7ff0c57e16840df040f15088dc2f81fe391c3923bec73e23a9662efc9c229c6a005f1b905090565b5f67ffffffffffffffff82169050919050565b61017f81610163565b82525050565b5f6020820190506101985f830184610176565b92915050565b610cd2806101ab5f395ff3fe608060405234801561000f575f80fd5b5060043610610055575f3560e01c8063715018a6146100595780638da5cb5b14610063578063ef690cc014610081578063f2fde38b1461009f578063f399e22e146100bb575b5f80fd5b6100616100d7565b005b61006b6100ea565b60405161007891906106b6565b60405180910390f35b61008961011f565b6040516100969190610759565b60405180910390f35b6100b960048036038101906100b491906107b4565b6101aa565b005b6100d560048036038101906100d0919061090b565b61022e565b005b6100df6103bf565b6100e85f610446565b565b5f806100f4610517565b9050805f015f9054906101000a900473ffffffffffffffffffffffffffffffffffffffff1691505090565b5f805461012b90610992565b80601f016020809104026020016040519081016040528092919081815260200182805461015790610992565b80156101a25780601f10610179576101008083540402835291602001916101a2565b820191905f5260205f20905b81548152906001019060200180831161018557829003601f168201915b505050505081565b6101b26103bf565b5f73ffffffffffffffffffffffffffffffffffffffff168173ffffffffffffffffffffffffffffffffffffffff1603610222575f6040517f1e4fbdf700000000000000000000000000000000000000000000000000000000815260040161021991906106b6565b60405180910390fd5b61022b81610446565b50565b5f61023761053e565b90505f815f0160089054906101000a900460ff161590505f825f015f9054906101000a900467ffffffffffffffff1690505f808267ffffffffffffffff1614801561027f5750825b90505f60018367ffffffffffffffff161480156102b257505f3073ffffffffffffffffffffffffffffffffffffffff163b145b9050811580156102c0575080155b156102f7576040517ff92ee8a900000000000000000000000000000000000000000000000000000000815260040160405180910390fd5b6001855f015f6101000a81548167ffffffffffffffff021916908367ffffffffffffffff1602179055508315610344576001855f0160086101000a81548160ff0219169083151502179055505b61034d87610551565b855f908161035b9190610b68565b5083156103b6575f855f0160086101000a81548160ff0219169083151502179055507fc7f505b2f371ae2175ee4913f4499e1f2633a7b5936321eed1cdaeb6115181d260016040516103ad9190610c83565b60405180910390a15b50505050505050565b6103c7610565565b73ffffffffffffffffffffffffffffffffffffffff166103e56100ea565b73ffffffffffffffffffffffffffffffffffffffff161461044457610408610565565b6040517f118cdaa700000000000000000000000000000000000000000000000000000000815260040161043b91906106b6565b60405180910390fd5b565b5f61044f610517565b90505f815f015f9054906101000a900473ffffffffffffffffffffffffffffffffffffffff16905082825f015f6101000a81548173ffffffffffffffffffffffffffffffffffffffff021916908373ffffffffffffffffffffffffffffffffffffffff1602179055508273ffffffffffffffffffffffffffffffffffffffff168173ffffffffffffffffffffffffffffffffffffffff167f8be0079c531659141344cd1fd0a4f28419497f9722a3daafe3b4186f6b6457e060405160405180910390a3505050565b5f7f9016d09d72d40fdae2fd8ceac6b6234c7706214fd39c1cd1e609a0528c199300905090565b5f8061054861056c565b90508091505090565b610559610595565b610562816105d5565b50565b5f33905090565b5f7ff0c57e16840df040f15088dc2f81fe391c3923bec73e23a9662efc9c229c6a005f1b905090565b61059d610659565b6105d3576040517fd7e6bcf800000000000000000000000000000000000000000000000000000000815260040160405180910390fd5b565b6105dd610595565b5f73ffffffffffffffffffffffffffffffffffffffff168173ffffffffffffffffffffffffffffffffffffffff160361064d575f6040517f1e4fbdf700000000000000000000000000000000000000000000000000000000815260040161064491906106b6565b60405180910390fd5b61065681610446565b50565b5f61066261053e565b5f0160089054906101000a900460ff16905090565b5f73ffffffffffffffffffffffffffffffffffffffff82169050919050565b5f6106a082610677565b9050919050565b6106b081610696565b82525050565b5f6020820190506106c95f8301846106a7565b92915050565b5f81519050919050565b5f82825260208201905092915050565b5f5b838110156107065780820151818401526020810190506106eb565b5f8484015250505050565b5f601f19601f8301169050919050565b5f61072b826106cf565b61073581856106d9565b93506107458185602086016106e9565b61074e81610711565b840191505092915050565b5f6020820190508181035f8301526107718184610721565b905092915050565b5f604051905090565b5f80fd5b5f80fd5b61079381610696565b811461079d575f80fd5b50565b5f813590506107ae8161078a565b92915050565b5f602082840312156107c9576107c8610782565b5b5f6107d6848285016107a0565b91505092915050565b5f80fd5b5f80fd5b7f4e487b71000000000000000000000000000000000000000000000000000000005f52604160045260245ffd5b61081d82610711565b810181811067ffffffffffffffff8211171561083c5761083b6107e7565b5b80604052505050565b5f61084e610779565b905061085a8282610814565b919050565b5f67ffffffffffffffff821115610879576108786107e7565b5b61088282610711565b9050602081019050919050565b828183375f83830152505050565b5f6108af6108aa8461085f565b610845565b9050828152602081018484840111156108cb576108ca6107e3565b5b6108d684828561088f565b509392505050565b5f82601f8301126108f2576108f16107df565b5b813561090284826020860161089d565b91505092915050565b5f806040838503121561092157610920610782565b5b5f61092e858286016107a0565b925050602083013567ffffffffffffffff81111561094f5761094e610786565b5b61095b858286016108de565b9150509250929050565b7f4e487b71000000000000000000000000000000000000000000000000000000005f52602260045260245ffd5b5f60028204905060018216806109a957607f821691505b6020821081036109bc576109bb610965565b5b50919050565b5f819050815f5260205f209050919050565b5f6020601f8301049050919050565b5f82821b905092915050565b5f60088302610a1e7fffffffffffffffffffffffffffffffffffffffffffffffffffffffffffffffff826109e3565b610a2886836109e3565b95508019841693508086168417925050509392505050565b5f819050919050565b5f819050919050565b5f610a6c610a67610a6284610a40565b610a49565b610a40565b9050919050565b5f819050919050565b610a8583610a52565b610a99610a9182610a73565b8484546109ef565b825550505050565b5f90565b610aad610aa1565b610ab8818484610a7c565b505050565b5b81811015610adb57610ad05f82610aa5565b600181019050610abe565b5050565b601f821115610b2057610af1816109c2565b610afa846109d4565b81016020851015610b09578190505b610b1d610b15856109d4565b830182610abd565b50505b505050565b5f82821c905092915050565b5f610b405f1984600802610b25565b1980831691505092915050565b5f610b588383610b31565b9150826002028217905092915050565b610b71826106cf565b67ffffffffffffffff811115610b8a57610b896107e7565b5b610b948254610992565b610b9f828285610adf565b5f60209050601f831160018114610bd0575f8415610bbe578287015190505b610bc88582610b4d565b865550610c2f565b601f198416610bde866109c2565b5f5b82811015610c0557848901518255600182019150602085019450602081019050610be0565b86831015610c225784890151610c1e601f891682610b31565b8355505b6001600288020188555050505b505050505050565b5f819050919050565b5f67ffffffffffffffff82169050919050565b5f610c6d610c68610c6384610c37565b610a49565b610c40565b9050919050565b610c7d81610c53565b82525050565b5f602082019050610c965f830184610c74565b9291505056fea2646970667358221220163ccef99f7fc1924aeb50510564e38e4d16729c342ed936be35af612ac7d0d064736f6c63430008160033","opcodes":"PUSH1 0x80 PUSH1 0x40 MSTORE CALLVALUE DUP1 ISZERO PUSH2 0xF JUMPI PUSH0 DUP1 REVERT JUMPDEST POP PUSH2 0x1E PUSH2 0x23 PUSH1 0x20 SHL PUSH1 0x20 SHR JUMP JUMPDEST PUSH2 0x19E JUMP JUMPDEST PUSH0 PUSH2 0x32 PUSH2 0x121 PUSH1 0x20 SHL PUSH1 0x20 SHR JUMP JUMPDEST SWAP1 POP DUP1 PUSH0 ADD PUSH1 0x8 SWAP1 SLOAD SWAP1 PUSH2 0x100 EXP SWAP1 DIV PUSH1 0xFF AND ISZERO PUSH2 0x7C JUMPI PUSH1 0x40 MLOAD PUSH32 0xF92EE8A900000000000000000000000000000000000000000000000000000000 DUP2 MSTORE PUSH1 0x4 ADD PUSH1 0x40 MLOAD DUP1 SWAP2 SUB SWAP1 REVERT JUMPDEST PUSH8 0xFFFFFFFFFFFFFFFF DUP1 AND DUP2 PUSH0 ADD PUSH0 SWAP1 SLOAD SWAP1 PUSH2 0x100 EXP SWAP1 DIV PUSH8 0xFFFFFFFFFFFFFFFF AND PUSH8 0xFFFFFFFFFFFFFFFF AND EQ PUSH2 0x11E JUMPI PUSH8 0xFFFFFFFFFFFFFFFF DUP2 PUSH0 ADD PUSH0 PUSH2 0x100 EXP DUP2 SLOAD DUP2 PUSH8 0xFFFFFFFFFFFFFFFF MUL NOT AND SWAP1 DUP4 PUSH8 0xFFFFFFFFFFFFFFFF AND MUL OR SWAP1 SSTORE POP PUSH32 0xC7F505B2F371AE2175EE4913F4499E1F2633A7B5936321EED1CDAEB6115181D2 PUSH8 0xFFFFFFFFFFFFFFFF PUSH1 0x40 MLOAD PUSH2 0x115 SWAP2 SWAP1 PUSH2 0x185 JUMP JUMPDEST PUSH1 0x40 MLOAD DUP1 SWAP2 SUB SWAP1 LOG1 JUMPDEST POP JUMP JUMPDEST PUSH0 DUP1 PUSH2 0x131 PUSH2 0x13A PUSH1 0x20 SHL PUSH1 0x20 SHR JUMP JUMPDEST SWAP1 POP DUP1 SWAP2 POP POP SWAP1 JUMP JUMPDEST PUSH0 PUSH32 0xF0C57E16840DF040F15088DC2F81FE391C3923BEC73E23A9662EFC9C229C6A00 PUSH0 SHL SWAP1 POP SWAP1 JUMP JUMPDEST PUSH0 PUSH8 0xFFFFFFFFFFFFFFFF DUP3 AND SWAP1 POP SWAP2 SWAP1 POP JUMP JUMPDEST PUSH2 0x17F DUP2 PUSH2 0x163 JUMP JUMPDEST DUP3 MSTORE POP POP JUMP JUMPDEST PUSH0 PUSH1 0x20 DUP3 ADD SWAP1 POP PUSH2 0x198 PUSH0 DUP4 ADD DUP5 PUSH2 0x176 JUMP JUMPDEST SWAP3 SWAP2 POP POP JUMP JUMPDEST PUSH2 0xCD2 DUP1 PUSH2 0x1AB PUSH0 CODECOPY PUSH0 RETURN INVALID PUSH1 0x80 PUSH1 0x40 MSTORE CALLVALUE DUP1 ISZERO PUSH2 0xF JUMPI PUSH0 DUP1 REVERT JUMPDEST POP PUSH1 0x4 CALLDATASIZE LT PUSH2 0x55 JUMPI PUSH0 CALLDATALOAD PUSH1 0xE0 SHR DUP1 PUSH4 0x715018A6 EQ PUSH2 0x59 JUMPI DUP1 PUSH4 0x8DA5CB5B EQ PUSH2 0x63 JUMPI DUP1 PUSH4 0xEF690CC0 EQ PUSH2 0x81 JUMPI DUP1 PUSH4 0xF2FDE38B EQ PUSH2 0x9F JUMPI DUP1 PUSH4 0xF399E22E EQ PUSH2 0xBB JUMPI JUMPDEST PUSH0 DUP1 REVERT JUMPDEST PUSH2 0x61 PUSH2 0xD7 JUMP JUMPDEST STOP JUMPDEST PUSH2 0x6B PUSH2 0xEA JUMP JUMPDEST PUSH1 0x40 MLOAD PUSH2 0x78 SWAP2 SWAP1 PUSH2 0x6B6 JUMP JUMPDEST PUSH1 0x40 MLOAD DUP1 SWAP2 SUB SWAP1 RETURN JUMPDEST PUSH2 0x89 PUSH2 0x11F JUMP JUMPDEST PUSH1 0x40 MLOAD PUSH2 0x96 SWAP2 SWAP1 PUSH2 0x759 JUMP JUMPDEST PUSH1 0x40 MLOAD DUP1 SWAP2 SUB SWAP1 RETURN JUMPDEST PUSH2 0xB9 PUSH1 0x4 DUP1 CALLDATASIZE SUB DUP2 ADD SWAP1 PUSH2 0xB4 SWAP2 SWAP1 PUSH2 0x7B4 JUMP JUMPDEST PUSH2 0x1AA JUMP JUMPDEST STOP JUMPDEST PUSH2 0xD5 PUSH1 0x4 DUP1 CALLDATASIZE SUB DUP2 ADD SWAP1 PUSH2 0xD0 SWAP2 SWAP1 PUSH2 0x90B JUMP JUMPDEST PUSH2 0x22E JUMP JUMPDEST STOP JUMPDEST PUSH2 0xDF PUSH2 0x3BF JUMP JUMPDEST PUSH2 0xE8 PUSH0 PUSH2 0x446 JUMP JUMPDEST JUMP JUMPDEST PUSH0 DUP1 PUSH2 0xF4 PUSH2 0x517 JUMP JUMPDEST SWAP1 POP DUP1 PUSH0 ADD PUSH0 SWAP1 SLOAD SWAP1 PUSH2 0x100 EXP SWAP1 DIV PUSH20 0xFFFFFFFFFFFFFFFFFFFFFFFFFFFFFFFFFFFFFFFF AND SWAP2 POP POP SWAP1 JUMP JUMPDEST PUSH0 DUP1 SLOAD PUSH2 0x12B SWAP1 PUSH2 0x992 JUMP JUMPDEST DUP1 PUSH1 0x1F ADD PUSH1 0x20 DUP1 SWAP2 DIV MUL PUSH1 0x20 ADD PUSH1 0x40 MLOAD SWAP1 DUP2 ADD PUSH1 0x40 MSTORE DUP1 SWAP3 SWAP2 SWAP1 DUP2 DUP2 MSTORE PUSH1 0x20 ADD DUP3 DUP1 SLOAD PUSH2 0x157 SWAP1 PUSH2 0x992 JUMP JUMPDEST DUP1 ISZERO PUSH2 0x1A2 JUMPI DUP1 PUSH1 0x1F LT PUSH2 0x179 JUMPI PUSH2 0x100 DUP1 DUP4 SLOAD DIV MUL DUP4 MSTORE SWAP2 PUSH1 0x20 ADD SWAP2 PUSH2 0x1A2 JUMP JUMPDEST DUP3 ADD SWAP2 SWAP1 PUSH0 MSTORE PUSH1 0x20 PUSH0 KECCAK256 SWAP1 JUMPDEST DUP2 SLOAD DUP2 MSTORE SWAP1 PUSH1 0x1 ADD SWAP1 PUSH1 0x20 ADD DUP1 DUP4 GT PUSH2 0x185 JUMPI DUP3 SWAP1 SUB PUSH1 0x1F AND DUP3 ADD SWAP2 JUMPDEST POP POP POP POP POP DUP2 JUMP JUMPDEST PUSH2 0x1B2 PUSH2 0x3BF JUMP JUMPDEST PUSH0 PUSH20 0xFFFFFFFFFFFFFFFFFFFFFFFFFFFFFFFFFFFFFFFF AND DUP2 PUSH20 0xFFFFFFFFFFFFFFFFFFFFFFFFFFFFFFFFFFFFFFFF AND SUB PUSH2 0x222 JUMPI PUSH0 PUSH1 0x40 MLOAD PUSH32 0x1E4FBDF700000000000000000000000000000000000000000000000000000000 DUP2 MSTORE PUSH1 0x4 ADD PUSH2 0x219 SWAP2 SWAP1 PUSH2 0x6B6 JUMP JUMPDEST PUSH1 0x40 MLOAD DUP1 SWAP2 SUB SWAP1 REVERT JUMPDEST PUSH2 0x22B DUP2 PUSH2 0x446 JUMP JUMPDEST POP JUMP JUMPDEST PUSH0 PUSH2 0x237 PUSH2 0x53E JUMP JUMPDEST SWAP1 POP PUSH0 DUP2 PUSH0 ADD PUSH1 0x8 SWAP1 SLOAD SWAP1 PUSH2 0x100 EXP SWAP1 DIV PUSH1 0xFF AND ISZERO SWAP1 POP PUSH0 DUP3 PUSH0 ADD PUSH0 SWAP1 SLOAD SWAP1 PUSH2 0x100 EXP SWAP1 DIV PUSH8 0xFFFFFFFFFFFFFFFF AND SWAP1 POP PUSH0 DUP1 DUP3 PUSH8 0xFFFFFFFFFFFFFFFF AND EQ DUP1 ISZERO PUSH2 0x27F JUMPI POP DUP3 JUMPDEST SWAP1 POP PUSH0 PUSH1 0x1 DUP4 PUSH8 0xFFFFFFFFFFFFFFFF AND EQ DUP1 ISZERO PUSH2 0x2B2 JUMPI POP PUSH0 ADDRESS PUSH20 0xFFFFFFFFFFFFFFFFFFFFFFFFFFFFFFFFFFFFFFFF AND EXTCODESIZE EQ JUMPDEST SWAP1 POP DUP2 ISZERO DUP1 ISZERO PUSH2 0x2C0 JUMPI POP DUP1 ISZERO JUMPDEST ISZERO PUSH2 0x2F7 JUMPI PUSH1 0x40 MLOAD PUSH32 0xF92EE8A900000000000000000000000000000000000000000000000000000000 DUP2 MSTORE PUSH1 0x4 ADD PUSH1 0x40 MLOAD DUP1 SWAP2 SUB SWAP1 REVERT JUMPDEST PUSH1 0x1 DUP6 PUSH0 ADD PUSH0 PUSH2 0x100 EXP DUP2 SLOAD DUP2 PUSH8 0xFFFFFFFFFFFFFFFF MUL NOT AND SWAP1 DUP4 PUSH8 0xFFFFFFFFFFFFFFFF AND MUL OR SWAP1 SSTORE POP DUP4 ISZERO PUSH2 0x344 JUMPI PUSH1 0x1 DUP6 PUSH0 ADD PUSH1 0x8 PUSH2 0x100 EXP DUP2 SLOAD DUP2 PUSH1 0xFF MUL NOT AND SWAP1 DUP4 ISZERO ISZERO MUL OR SWAP1 SSTORE POP JUMPDEST PUSH2 0x34D DUP8 PUSH2 0x551 JUMP JUMPDEST DUP6 PUSH0 SWAP1 DUP2 PUSH2 0x35B SWAP2 SWAP1 PUSH2 0xB68 JUMP JUMPDEST POP DUP4 ISZERO PUSH2 0x3B6 JUMPI PUSH0 DUP6 PUSH0 ADD PUSH1 0x8 PUSH2 0x100 EXP DUP2 SLOAD DUP2 PUSH1 0xFF MUL NOT AND SWAP1 DUP4 ISZERO ISZERO MUL OR SWAP1 SSTORE POP PUSH32 0xC7F505B2F371AE2175EE4913F4499E1F2633A7B5936321EED1CDAEB6115181D2 PUSH1 0x1 PUSH1 0x40 MLOAD PUSH2 0x3AD SWAP2 SWAP1 PUSH2 0xC83 JUMP JUMPDEST PUSH1 0x40 MLOAD DUP1 SWAP2 SUB SWAP1 LOG1 JUMPDEST POP POP POP POP POP POP POP JUMP JUMPDEST PUSH2 0x3C7 PUSH2 0x565 JUMP JUMPDEST PUSH20 0xFFFFFFFFFFFFFFFFFFFFFFFFFFFFFFFFFFFFFFFF AND PUSH2 0x3E5 PUSH2 0xEA JUMP JUMPDEST PUSH20 0xFFFFFFFFFFFFFFFFFFFFFFFFFFFFFFFFFFFFFFFF AND EQ PUSH2 0x444 JUMPI PUSH2 0x408 PUSH2 0x565 JUMP JUMPDEST PUSH1 0x40 MLOAD PUSH32 0x118CDAA700000000000000000000000000000000000000000000000000000000 DUP2 MSTORE PUSH1 0x4 ADD PUSH2 0x43B SWAP2 SWAP1 PUSH2 0x6B6 JUMP JUMPDEST PUSH1 0x40 MLOAD DUP1 SWAP2 SUB SWAP1 REVERT JUMPDEST JUMP JUMPDEST PUSH0 PUSH2 0x44F PUSH2 0x517 JUMP JUMPDEST SWAP1 POP PUSH0 DUP2 PUSH0 ADD PUSH0 SWAP1 SLOAD SWAP1 PUSH2 0x100 EXP SWAP1 DIV PUSH20 0xFFFFFFFFFFFFFFFFFFFFFFFFFFFFFFFFFFFFFFFF AND SWAP1 POP DUP3 DUP3 PUSH0 ADD PUSH0 PUSH2 0x100 EXP DUP2 SLOAD DUP2 PUSH20 0xFFFFFFFFFFFFFFFFFFFFFFFFFFFFFFFFFFFFFFFF MUL NOT AND SWAP1 DUP4 PUSH20 0xFFFFFFFFFFFFFFFFFFFFFFFFFFFFFFFFFFFFFFFF AND MUL OR SWAP1 SSTORE POP DUP3 PUSH20 0xFFFFFFFFFFFFFFFFFFFFFFFFFFFFFFFFFFFFFFFF AND DUP2 PUSH20 0xFFFFFFFFFFFFFFFFFFFFFFFFFFFFFFFFFFFFFFFF AND PUSH32 0x8BE0079C531659141344CD1FD0A4F28419497F9722A3DAAFE3B4186F6B6457E0 PUSH1 0x40 MLOAD PUSH1 0x40 MLOAD DUP1 SWAP2 SUB SWAP1 LOG3 POP POP POP JUMP JUMPDEST PUSH0 PUSH32 0x9016D09D72D40FDAE2FD8CEAC6B6234C7706214FD39C1CD1E609A0528C199300 SWAP1 POP SWAP1 JUMP JUMPDEST PUSH0 DUP1 PUSH2 0x548 PUSH2 0x56C JUMP JUMPDEST SWAP1 POP DUP1 SWAP2 POP POP SWAP1 JUMP JUMPDEST PUSH2 0x559 PUSH2 0x595 JUMP JUMPDEST PUSH2 0x562 DUP2 PUSH2 0x5D5 JUMP JUMPDEST POP JUMP JUMPDEST PUSH0 CALLER SWAP1 POP SWAP1 JUMP JUMPDEST PUSH0 PUSH32 0xF0C57E16840DF040F15088DC2F81FE391C3923BEC73E23A9662EFC9C229C6A00 PUSH0 SHL SWAP1 POP SWAP1 JUMP JUMPDEST PUSH2 0x59D PUSH2 0x659 JUMP JUMPDEST PUSH2 0x5D3 JUMPI PUSH1 0x40 MLOAD PUSH32 0xD7E6BCF800000000000000000000000000000000000000000000000000000000 DUP2 MSTORE PUSH1 0x4 ADD PUSH1 0x40 MLOAD DUP1 SWAP2 SUB SWAP1 REVERT JUMPDEST JUMP JUMPDEST PUSH2 0x5DD PUSH2 0x595 JUMP JUMPDEST PUSH0 PUSH20 0xFFFFFFFFFFFFFFFFFFFFFFFFFFFFFFFFFFFFFFFF AND DUP2 PUSH20 0xFFFFFFFFFFFFFFFFFFFFFFFFFFFFFFFFFFFFFFFF AND SUB PUSH2 0x64D JUMPI PUSH0 PUSH1 0x40 MLOAD PUSH32 0x1E4FBDF700000000000000000000000000000000000000000000000000000000 DUP2 MSTORE PUSH1 0x4 ADD PUSH2 0x644 SWAP2 SWAP1 PUSH2 0x6B6 JUMP JUMPDEST PUSH1 0x40 MLOAD DUP1 SWAP2 SUB SWAP1 REVERT JUMPDEST PUSH2 0x656 DUP2 PUSH2 0x446 JUMP JUMPDEST POP JUMP JUMPDEST PUSH0 PUSH2 0x662 PUSH2 0x53E JUMP JUMPDEST PUSH0 ADD PUSH1 0x8 SWAP1 SLOAD SWAP1 PUSH2 0x100 EXP SWAP1 DIV PUSH1 0xFF AND SWAP1 POP SWAP1 JUMP JUMPDEST PUSH0 PUSH20 0xFFFFFFFFFFFFFFFFFFFFFFFFFFFFFFFFFFFFFFFF DUP3 AND SWAP1 POP SWAP2 SWAP1 POP JUMP JUMPDEST PUSH0 PUSH2 0x6A0 DUP3 PUSH2 0x677 JUMP JUMPDEST SWAP1 POP SWAP2 SWAP1 POP JUMP JUMPDEST PUSH2 0x6B0 DUP2 PUSH2 0x696 JUMP JUMPDEST DUP3 MSTORE POP POP JUMP JUMPDEST PUSH0 PUSH1 0x20 DUP3 ADD SWAP1 POP PUSH2 0x6C9 PUSH0 DUP4 ADD DUP5 PUSH2 0x6A7 JUMP JUMPDEST SWAP3 SWAP2 POP POP JUMP JUMPDEST PUSH0 DUP2 MLOAD SWAP1 POP SWAP2 SWAP1 POP JUMP JUMPDEST PUSH0 DUP3 DUP3 MSTORE PUSH1 0x20 DUP3 ADD SWAP1 POP SWAP3 SWAP2 POP POP JUMP JUMPDEST PUSH0 JUMPDEST DUP4 DUP2 LT ISZERO PUSH2 0x706 JUMPI DUP1 DUP3 ADD MLOAD DUP2 DUP5 ADD MSTORE PUSH1 0x20 DUP2 ADD SWAP1 POP PUSH2 0x6EB JUMP JUMPDEST PUSH0 DUP5 DUP5 ADD MSTORE POP POP POP POP JUMP JUMPDEST PUSH0 PUSH1 0x1F NOT PUSH1 0x1F DUP4 ADD AND SWAP1 POP SWAP2 SWAP1 POP JUMP JUMPDEST PUSH0 PUSH2 0x72B DUP3 PUSH2 0x6CF JUMP JUMPDEST PUSH2 0x735 DUP2 DUP6 PUSH2 0x6D9 JUMP JUMPDEST SWAP4 POP PUSH2 0x745 DUP2 DUP6 PUSH1 0x20 DUP7 ADD PUSH2 0x6E9 JUMP JUMPDEST PUSH2 0x74E DUP2 PUSH2 0x711 JUMP JUMPDEST DUP5 ADD SWAP2 POP POP SWAP3 SWAP2 POP POP JUMP JUMPDEST PUSH0 PUSH1 0x20 DUP3 ADD SWAP1 POP DUP2 DUP2 SUB PUSH0 DUP4 ADD MSTORE PUSH2 0x771 DUP2 DUP5 PUSH2 0x721 JUMP JUMPDEST SWAP1 POP SWAP3 SWAP2 POP POP JUMP JUMPDEST PUSH0 PUSH1 0x40 MLOAD SWAP1 POP SWAP1 JUMP JUMPDEST PUSH0 DUP1 REVERT JUMPDEST PUSH0 DUP1 REVERT JUMPDEST PUSH2 0x793 DUP2 PUSH2 0x696 JUMP JUMPDEST DUP2 EQ PUSH2 0x79D JUMPI PUSH0 DUP1 REVERT JUMPDEST POP JUMP JUMPDEST PUSH0 DUP2 CALLDATALOAD SWAP1 POP PUSH2 0x7AE DUP2 PUSH2 0x78A JUMP JUMPDEST SWAP3 SWAP2 POP POP JUMP JUMPDEST PUSH0 PUSH1 0x20 DUP3 DUP5 SUB SLT ISZERO PUSH2 0x7C9 JUMPI PUSH2 0x7C8 PUSH2 0x782 JUMP JUMPDEST JUMPDEST PUSH0 PUSH2 0x7D6 DUP5 DUP3 DUP6 ADD PUSH2 0x7A0 JUMP JUMPDEST SWAP2 POP POP SWAP3 SWAP2 POP POP JUMP JUMPDEST PUSH0 DUP1 REVERT JUMPDEST PUSH0 DUP1 REVERT JUMPDEST PUSH32 0x4E487B7100000000000000000000000000000000000000000000000000000000 PUSH0 MSTORE PUSH1 0x41 PUSH1 0x4 MSTORE PUSH1 0x24 PUSH0 REVERT JUMPDEST PUSH2 0x81D DUP3 PUSH2 0x711 JUMP JUMPDEST DUP2 ADD DUP2 DUP2 LT PUSH8 0xFFFFFFFFFFFFFFFF DUP3 GT OR ISZERO PUSH2 0x83C JUMPI PUSH2 0x83B PUSH2 0x7E7 JUMP JUMPDEST JUMPDEST DUP1 PUSH1 0x40 MSTORE POP POP POP JUMP JUMPDEST PUSH0 PUSH2 0x84E PUSH2 0x779 JUMP JUMPDEST SWAP1 POP PUSH2 0x85A DUP3 DUP3 PUSH2 0x814 JUMP JUMPDEST SWAP2 SWAP1 POP JUMP JUMPDEST PUSH0 PUSH8 0xFFFFFFFFFFFFFFFF DUP3 GT ISZERO PUSH2 0x879 JUMPI PUSH2 0x878 PUSH2 0x7E7 JUMP JUMPDEST JUMPDEST PUSH2 0x882 DUP3 PUSH2 0x711 JUMP JUMPDEST SWAP1 POP PUSH1 0x20 DUP2 ADD SWAP1 POP SWAP2 SWAP1 POP JUMP JUMPDEST DUP3 DUP2 DUP4 CALLDATACOPY PUSH0 DUP4 DUP4 ADD MSTORE POP POP POP JUMP JUMPDEST PUSH0 PUSH2 0x8AF PUSH2 0x8AA DUP5 PUSH2 0x85F JUMP JUMPDEST PUSH2 0x845 JUMP JUMPDEST SWAP1 POP DUP3 DUP2 MSTORE PUSH1 0x20 DUP2 ADD DUP5 DUP5 DUP5 ADD GT ISZERO PUSH2 0x8CB JUMPI PUSH2 0x8CA PUSH2 0x7E3 JUMP JUMPDEST JUMPDEST PUSH2 0x8D6 DUP5 DUP3 DUP6 PUSH2 0x88F JUMP JUMPDEST POP SWAP4 SWAP3 POP POP POP JUMP JUMPDEST PUSH0 DUP3 PUSH1 0x1F DUP4 ADD SLT PUSH2 0x8F2 JUMPI PUSH2 0x8F1 PUSH2 0x7DF JUMP JUMPDEST JUMPDEST DUP2 CALLDATALOAD PUSH2 0x902 DUP5 DUP3 PUSH1 0x20 DUP7 ADD PUSH2 0x89D JUMP JUMPDEST SWAP2 POP POP SWAP3 SWAP2 POP POP JUMP JUMPDEST PUSH0 DUP1 PUSH1 0x40 DUP4 DUP6 SUB SLT ISZERO PUSH2 0x921 JUMPI PUSH2 0x920 PUSH2 0x782 JUMP JUMPDEST JUMPDEST PUSH0 PUSH2 0x92E DUP6 DUP3 DUP7 ADD PUSH2 0x7A0 JUMP JUMPDEST SWAP3 POP POP PUSH1 0x20 DUP4 ADD CALLDATALOAD PUSH8 0xFFFFFFFFFFFFFFFF DUP2 GT ISZERO PUSH2 0x94F JUMPI PUSH2 0x94E PUSH2 0x786 JUMP JUMPDEST JUMPDEST PUSH2 0x95B DUP6 DUP3 DUP7 ADD PUSH2 0x8DE JUMP JUMPDEST SWAP2 POP POP SWAP3 POP SWAP3 SWAP1 POP JUMP JUMPDEST PUSH32 0x4E487B7100000000000000000000000000000000000000000000000000000000 PUSH0 MSTORE PUSH1 0x22 PUSH1 0x4 MSTORE PUSH1 0x24 PUSH0 REVERT JUMPDEST PUSH0 PUSH1 0x2 DUP3 DIV SWAP1 POP PUSH1 0x1 DUP3 AND DUP1 PUSH2 0x9A9 JUMPI PUSH1 0x7F DUP3 AND SWAP2 POP JUMPDEST PUSH1 0x20 DUP3 LT DUP2 SUB PUSH2 0x9BC JUMPI PUSH2 0x9BB PUSH2 0x965 JUMP JUMPDEST JUMPDEST POP SWAP2 SWAP1 POP JUMP JUMPDEST PUSH0 DUP2 SWAP1 POP DUP2 PUSH0 MSTORE PUSH1 0x20 PUSH0 KECCAK256 SWAP1 POP SWAP2 SWAP1 POP JUMP JUMPDEST PUSH0 PUSH1 0x20 PUSH1 0x1F DUP4 ADD DIV SWAP1 POP SWAP2 SWAP1 POP JUMP JUMPDEST PUSH0 DUP3 DUP3 SHL SWAP1 POP SWAP3 SWAP2 POP POP JUMP JUMPDEST PUSH0 PUSH1 0x8 DUP4 MUL PUSH2 0xA1E PUSH32 0xFFFFFFFFFFFFFFFFFFFFFFFFFFFFFFFFFFFFFFFFFFFFFFFFFFFFFFFFFFFFFFFF DUP3 PUSH2 0x9E3 JUMP JUMPDEST PUSH2 0xA28 DUP7 DUP4 PUSH2 0x9E3 JUMP JUMPDEST SWAP6 POP DUP1 NOT DUP5 AND SWAP4 POP DUP1 DUP7 AND DUP5 OR SWAP3 POP POP POP SWAP4 SWAP3 POP POP POP JUMP JUMPDEST PUSH0 DUP2 SWAP1 POP SWAP2 SWAP1 POP JUMP JUMPDEST PUSH0 DUP2 SWAP1 POP SWAP2 SWAP1 POP JUMP JUMPDEST PUSH0 PUSH2 0xA6C PUSH2 0xA67 PUSH2 0xA62 DUP5 PUSH2 0xA40 JUMP JUMPDEST PUSH2 0xA49 JUMP JUMPDEST PUSH2 0xA40 JUMP JUMPDEST SWAP1 POP SWAP2 SWAP1 POP JUMP JUMPDEST PUSH0 DUP2 SWAP1 POP SWAP2 SWAP1 POP JUMP JUMPDEST PUSH2 0xA85 DUP4 PUSH2 0xA52 JUMP JUMPDEST PUSH2 0xA99 PUSH2 0xA91 DUP3 PUSH2 0xA73 JUMP JUMPDEST DUP5 DUP5 SLOAD PUSH2 0x9EF JUMP JUMPDEST DUP3 SSTORE POP POP POP POP JUMP JUMPDEST PUSH0 SWAP1 JUMP JUMPDEST PUSH2 0xAAD PUSH2 0xAA1 JUMP JUMPDEST PUSH2 0xAB8 DUP2 DUP5 DUP5 PUSH2 0xA7C JUMP JUMPDEST POP POP POP JUMP JUMPDEST JUMPDEST DUP2 DUP2 LT ISZERO PUSH2 0xADB JUMPI PUSH2 0xAD0 PUSH0 DUP3 PUSH2 0xAA5 JUMP JUMPDEST PUSH1 0x1 DUP2 ADD SWAP1 POP PUSH2 0xABE JUMP JUMPDEST POP POP JUMP JUMPDEST PUSH1 0x1F DUP3 GT ISZERO PUSH2 0xB20 JUMPI PUSH2 0xAF1 DUP2 PUSH2 0x9C2 JUMP JUMPDEST PUSH2 0xAFA DUP5 PUSH2 0x9D4 JUMP JUMPDEST DUP2 ADD PUSH1 0x20 DUP6 LT ISZERO PUSH2 0xB09 JUMPI DUP2 SWAP1 POP JUMPDEST PUSH2 0xB1D PUSH2 0xB15 DUP6 PUSH2 0x9D4 JUMP JUMPDEST DUP4 ADD DUP3 PUSH2 0xABD JUMP JUMPDEST POP POP JUMPDEST POP POP POP JUMP JUMPDEST PUSH0 DUP3 DUP3 SHR SWAP1 POP SWAP3 SWAP2 POP POP JUMP JUMPDEST PUSH0 PUSH2 0xB40 PUSH0 NOT DUP5 PUSH1 0x8 MUL PUSH2 0xB25 JUMP JUMPDEST NOT DUP1 DUP4 AND SWAP2 POP POP SWAP3 SWAP2 POP POP JUMP JUMPDEST PUSH0 PUSH2 0xB58 DUP4 DUP4 PUSH2 0xB31 JUMP JUMPDEST SWAP2 POP DUP3 PUSH1 0x2 MUL DUP3 OR SWAP1 POP SWAP3 SWAP2 POP POP JUMP JUMPDEST PUSH2 0xB71 DUP3 PUSH2 0x6CF JUMP JUMPDEST PUSH8 0xFFFFFFFFFFFFFFFF DUP2 GT ISZERO PUSH2 0xB8A JUMPI PUSH2 0xB89 PUSH2 0x7E7 JUMP JUMPDEST JUMPDEST PUSH2 0xB94 DUP3 SLOAD PUSH2 0x992 JUMP JUMPDEST PUSH2 0xB9F DUP3 DUP3 DUP6 PUSH2 0xADF JUMP JUMPDEST PUSH0 PUSH1 0x20 SWAP1 POP PUSH1 0x1F DUP4 GT PUSH1 0x1 DUP2 EQ PUSH2 0xBD0 JUMPI PUSH0 DUP5 ISZERO PUSH2 0xBBE JUMPI DUP3 DUP8 ADD MLOAD SWAP1 POP JUMPDEST PUSH2 0xBC8 DUP6 DUP3 PUSH2 0xB4D JUMP JUMPDEST DUP7 SSTORE POP PUSH2 0xC2F JUMP JUMPDEST PUSH1 0x1F NOT DUP5 AND PUSH2 0xBDE DUP7 PUSH2 0x9C2 JUMP JUMPDEST PUSH0 JUMPDEST DUP3 DUP2 LT ISZERO PUSH2 0xC05 JUMPI DUP5 DUP10 ADD MLOAD DUP3 SSTORE PUSH1 0x1 DUP3 ADD SWAP2 POP PUSH1 0x20 DUP6 ADD SWAP5 POP PUSH1 0x20 DUP2 ADD SWAP1 POP PUSH2 0xBE0 JUMP JUMPDEST DUP7 DUP4 LT ISZERO PUSH2 0xC22 JUMPI DUP5 DUP10 ADD MLOAD PUSH2 0xC1E PUSH1 0x1F DUP10 AND DUP3 PUSH2 0xB31 JUMP JUMPDEST DUP4 SSTORE POP JUMPDEST PUSH1 0x1 PUSH1 0x2 DUP9 MUL ADD DUP9 SSTORE POP POP POP JUMPDEST POP POP POP POP POP POP JUMP JUMPDEST PUSH0 DUP2 SWAP1 POP SWAP2 SWAP1 POP JUMP JUMPDEST PUSH0 PUSH8 0xFFFFFFFFFFFFFFFF DUP3 AND SWAP1 POP SWAP2 SWAP1 POP JUMP JUMPDEST PUSH0 PUSH2 0xC6D PUSH2 0xC68 PUSH2 0xC63 DUP5 PUSH2 0xC37 JUMP JUMPDEST PUSH2 0xA49 JUMP JUMPDEST PUSH2 0xC40 JUMP JUMPDEST SWAP1 POP SWAP2 SWAP1 POP JUMP JUMPDEST PUSH2 0xC7D DUP2 PUSH2 0xC53 JUMP JUMPDEST DUP3 MSTORE POP POP JUMP JUMPDEST PUSH0 PUSH1 0x20 DUP3 ADD SWAP1 POP PUSH2 0xC96 PUSH0 DUP4 ADD DUP5 PUSH2 0xC74 JUMP JUMPDEST SWAP3 SWAP2 POP POP JUMP INVALID LOG2 PUSH5 0x6970667358 0x22 SLT KECCAK256 AND EXTCODECOPY 0xCE 0xF9 SWAP16 PUSH32 0xC1924AEB50510564E38E4D16729C342ED936BE35AF612AC7D0D064736F6C6343 STOP ADDMOD AND STOP CALLER "},"methodIdentifiers":{"greeting()":"ef690cc0","initialize(address,string)":"f399e22e","owner()":"8da5cb5b","renounceOwnership()":"715018a6","transferOwnership(address)":"f2fde38b"}}}}}