{
  "_format": "hh3-artifact-1",
  "contractName": "Greeter",
  "sourceName": "contracts/Greeter.sol",
  "abi": [
    {
      "inputs": [],
      "stateMutability": "nonpayable",
      "type": "constructor"
    },
    {
      "inputs": [],
      "name": "InvalidInitialization",
      "type": "error"
    },
    {
      "inputs": [],
      "name": "NotInitializing",
      "type": "error"
    },
    {
      "inputs": [
        {
          "internalType": "address",
          "name": "owner",
          "type": "address"
        }
      ],
      "name": "OwnableInvalidOwner",
      "type": "error"
    },
    {
      "inputs": [
        {
          "internalType": "address",
          "name": "account",
          "type": "address"
        }
      ],
      "name": "OwnableUnauthorizedAccount",
      "type": "error"
    },
    {
      "anonymous": false,
      "inputs": [
        {
          "indexed": false,
          "internalType": "uint64",
          "name": "version",
          "type": "uint64"
        }
      ],
      "name": "Initialized",
      "type": "event"
    },
    {
      "anonymous": false,
      "inputs": [
        {
          "indexed": true,
          "internalType": "address",
          "name": "previousOwner",
          "type": "address"
        },
        {
          "indexed": true,
          "internalType": "address",
          "name": "newOwner",
          "type": "address"
        }
      ],
      "name": "OwnershipTransferred",
      "type": "event"
    },
    {
      "inputs": [],
      "name": "greeting",
      "outputs": [
        {
          "internalType": "string",
          "name": "",
          "type": "string"
        }
      ],
      "stateMutability": "view",
      "type": "function"
    },
    {
      "inputs": [
        {
          "internalType": "address",
          "name": "initialOwner",
          "type": "address"
        },
        {
          "internalType": "string",
          "name": "_greeting",
          "type": "string"
        }
      ],
      "name": "initialize",
      "outputs": [],
      "stateMutability": "nonpayable",
      "type": "function"
    },
    {
      "inputs": [],
      "name": "owner",
      "outputs": [
        {
          "internalType": "address",
          "name": "",
          "type": "address"
        }
      ],
      "stateMutability": "view",
      "type": "function"
    },
    {
      "inputs": [],
      "name": "renounceOwnership",
      "outputs": [],
      "stateMutability": "nonpayable",
      "type": "function"
    },
    {
      "inputs": [
        {
          "internalType": "address",
          "name": "newOwner",
          "type": "address"
        }
      ],
      "name": "transferOwnership",
      "outputs": [],
      "stateMutability": "nonpayable",
      "type": "function"
    }
  ],
  "bytecode": "0x608060405234801561000f575f80fd5b5061001e61002360201b60201c565b61019e565b5f61003261012160201b60201c565b9050805f0160089054906101000a900460ff161561007c576040517ff92ee8a900000000000000000000000000000000000000000000000000000000815260040160405180910390fd5b67ffffffffffffffff8016815f015f9054906101000a900467ffffffffffffffff1667ffffffffffffffff161461011e5767ffffffffffffffff815f015f6101000a81548167ffffffffffffffff021916908367ffffffffffffffff1602179055507fc7f505b2f371ae2175ee4913f4499e1f2633a7b5936321eed1cdaeb6115181d267ffffffffffffffff6040516101159190610185565b60405180910390a15b50565b5f8061013161013a60201b60201c565b90508091505090565b5f7ff0c57e16840df040f15088dc2f81fe391c3923bec73e23a9662efc9c229c6a005f1b905090565b5f67ffffffffffffffff82169050919050565b61017f81610163565b82525050565b5f6020820190506101985f830184610176565b92915050565b610cd2806101ab5f395ff3fe608060405234801561000f575f80fd5b5060043610610055575f3560e01c8063715018a6146100595780638da5cb5b14610063578063ef690cc014610081578063f2fde38b1461009f578063f399e22e146100bb575b5f80fd5b6100616100d7565b005b61006b6100ea565b60405161007891906106b6565b60405180910390f35b61008961011f565b6040516100969190610759565b60405180910390f35b6100b960048036038101906100b491906107b4565b6101aa565b005b6100d560048036038101906100d0919061090b565b61022e565b005b6100df6103bf565b6100e85f610446565b565b5f806100f4610517565b9050805f015f9054906101000a900473ffffffffffffffffffffffffffffffffffffffff1691505090565b5f805461012b90610992565b80601f016020809104026020016040519081016040528092919081815260200182805461015790610992565b80156101a25780601f10610179576101008083540402835291602001916101a2565b820191905f5260205f20905b81548152906001019060200180831161018557829003601f168201915b505050505081565b6101b26103bf565b5f73ffffffffffffffffffffffffffffffffffffffff168173ffffffffffffffffffffffffffffffffffffffff1603610222575f6040517f1e4fbdf700000000000000000000000000000000000000000000000000000000815260040161021991906106b6565b60405180910390fd5b61022b81610446565b50565b5f61023761053e565b90505f815f0160089054906101000a900460ff161590505f825f015f9054906101000a900467ffffffffffffffff1690505f808267ffffffffffffffff1614801561027f5750825b90505f60018367ffffffffffffffff161480156102b257505f3073ffffffffffffffffffffffffffffffffffffffff163b145b9050811580156102c0575080155b156102f7576040517ff92ee8a900000000000000000000000000000000000000000000000000000000815260040160405180910390fd5b6001855f015f6101000a81548167ffffffffffffffff021916908367ffffffffffffffff1602179055508315610344576001855f0160086101000a81548160ff0219169083151502179055505b61034d87610551565b855f908161035b9190610b68565b5083156103b6575f855f0160086101000a81548160ff0219169083151502179055507fc7f505b2f371ae2175ee4913f4499e1f2633a7b5936321eed1cdaeb6115181d260016040516103ad9190610c83565b60405180910390a15b50505050505050565b6103c7610565565b73ffffffffffffffffffffffffffffffffffffffff166103e56100ea565b73ffffffffffffffffffffffffffffffffffffffff161461044457610408610565565b6040517f118cdaa700000000000000000000000000000000000000000000000000000000815260040161043b91906106b6565b60405180910390fd5b565b5f61044f610517565b90505f815f015f9054906101000a900473ffffffffffffffffffffffffffffffffffffffff16905082825f015f6101000a81548173ffffffffffffffffffffffffffffffffffffffff021916908373ffffffffffffffffffffffffffffffffffffffff1602179055508273ffffffffffffffffffffffffffffffffffffffff168173ffffffffffffffffffffffffffffffffffffffff167f8be0079c531659141344cd1fd0a4f28419497f9722a3daafe3b4186f6b6457e060405160405180910390a3505050565b5f7f9016d09d72d40fdae2fd8ceac6b6234c7706214fd39c1cd1e609a0528c199300905090565b5f8061054861056c565b90508091505090565b610559610595565b610562816105d5565b50565b5f33905090565b5f7ff0c57e16840df040f15088dc2f81fe391c3923bec73e23a9662efc9c229c6a005f1b905090565b61059d610659565b6105d3576040517fd7e6bcf800000000000000000000000000000000000000000000000000000000815260040160405180910390fd5b565b6105dd610595565b5f73ffffffffffffffffffffffffffffffffffffffff168173ffffffffffffffffffffffffffffffffffffffff160361064d575f6040517f1e4fbdf700000000000000000000000000000000000000000000000000000000815260040161064491906106b6565b60405180910390fd5b61065681610446565b50565b5f61066261053e565b5f0160089054906101000a900460ff16905090565b5f73ffffffffffffffffffffffffffffffffffffffff82169050919050565b5f6106a082610677565b9050919050565b6106b081610696565b82525050565b5f6020820190506106c95f8301846106a7565b92915050565b5f81519050919050565b5f82825260208201905092915050565b5f5b838110156107065780820151818401526020810190506106eb565b5f8484015250505050565b5f601f19601f8301169050919050565b5f61072b826106cf565b61073581856106d9565b93506107458185602086016106e9565b61074e81610711565b840191505092915050565b5f6020820190508181035f8301526107718184610721565b905092915050565b5f604051905090565b5f80fd5b5f80fd5b61079381610696565b811461079d575f80fd5b50565b5f813590506107ae8161078a565b92915050565b5f602082840312156107c9576107c8610782565b5b5f6107d6848285016107a0565b91505092915050565b5f80fd5b5f80fd5b7f4e487b71000000000000000000000000000000000000000000000000000000005f52604160045260245ffd5b61081d82610711565b810181811067ffffffffffffffff8211171561083c5761083b6107e7565b5b80604052505050565b5f61084e610779565b905061085a8282610814565b919050565b5f67ffffffffffffffff821115610879576108786107e7565b5b61088282610711565b9050602081019050919050565b828183375f83830152505050565b5f6108af6108aa8461085f565b610845565b9050828152602081018484840111156108cb576108ca6107e3565b5b6108d684828561088f565b509392505050565b5f82601f8301126108f2576108f16107df565b5b813561090284826020860161089d565b91505092915050565b5f806040838503121561092157610920610782565b5b5f61092e858286016107a0565b925050602083013567ffffffffffffffff81111561094f5761094e610786565b5b61095b858286016108de565b9150509250929050565b7f4e487b71000000000000000000000000000000000000000000000000000000005f52602260045260245ffd5b5f60028204905060018216806109a957607f821691505b6020821081036109bc576109bb610965565b5b50919050565b5f819050815f5260205f209050919050565b5f6020601f8301049050919050565b5f82821b905092915050565b5f60088302610a1e7fffffffffffffffffffffffffffffffffffffffffffffffffffffffffffffffff826109e3565b610a2886836109e3565b95508019841693508086168417925050509392505050565b5f819050919050565b5f819050919050565b5f610a6c610a67610a6284610a40565b610a49565b610a40565b9050919050565b5f819050919050565b610a8583610a52565b610a99610a9182610a73565b8484546109ef565b825550505050565b5f90565b610aad610aa1565b610ab8818484610a7c565b505050565b5b81811015610adb57610ad05f82610aa5565b600181019050610abe565b5050565b601f821115610b2057610af1816109c2565b610afa846109d4565b81016020851015610b09578190505b610b1d610b15856109d4565b830182610abd565b50505b505050565b5f82821c905092915050565b5f610b405f1984600802610b25565b1980831691505092915050565b5f610b588383610b31565b9150826002028217905092915050565b610b71826106cf565b67ffffffffffffffff811115610b8a57610b896107e7565b5b610b948254610992565b610b9f828285610adf565b5f60209050601f831160018114610bd0575f8415610bbe578287015190505b610bc88582610b4d565b865550610c2f565b601f198416610bde866109c2565b5f5b82811015610c0557848901518255600182019150602085019450602081019050610be0565b86831015610c225784890151610c1e601f891682610b31565b8355505b6001600288020188555050505b505050505050565b5f819050919050565b5f67ffffffffffffffff82169050919050565b5f610c6d610c68610c6384610c37565b610a49565b610c40565b9050919050565b610c7d81610c53565b82525050565b5f602082019050610c965f830184610c74565b9291505056fea2646970667358221220f14458e104a37d6c2c37afc656590fd89daf05f1f5ef3c3331f2c68f05cb800f64736f6c63430008160033",
  "linkReferences": {},
  "deployedLinkReferences": {},
  "immutableReferences": {},
  "inputSourceName": "project/contracts/Greeter.sol",
  "buildInfoId": "solc-0_8_22-51abab821755ff8b82001ffc20d975ec868e2128"
}